{
  "contractName": "MyChannel",
  "abi": [
    {
      "inputs": [
        {
          "name": "_owner",
          "type": "address"
        },
        {
          "name": "_publicKey",
          "type": "string"
        }
      ],
      "payable": false,
      "stateMutability": "nonpayable",
      "type": "constructor"
    },
    {
      "anonymous": false,
      "inputs": [
        {
          "indexed": false,
          "name": "sender",
          "type": "address"
        },
        {
          "indexed": false,
          "name": "ipfs_address",
          "type": "string"
        }
      ],
      "name": "MessageReceived",
      "type": "event"
    },
    {
      "constant": false,
      "inputs": [
        {
          "name": "_logTitle",
          "type": "string"
        },
        {
          "name": "_logAddress",
          "type": "address"
        },
        {
          "name": "_logString",
          "type": "string"
        },
        {
          "name": "_logUint",
          "type": "uint256"
        }
      ],
      "name": "AddLogMessage",
      "outputs": [],
      "payable": false,
      "stateMutability": "nonpayable",
      "type": "function"
    },
    {
      "constant": true,
      "inputs": [],
      "name": "GetLogListCount",
      "outputs": [
        {
          "name": "",
          "type": "uint256"
        }
      ],
      "payable": false,
      "stateMutability": "view",
      "type": "function"
    },
    {
      "constant": true,
      "inputs": [
        {
          "name": "index",
          "type": "uint256"
        }
      ],
      "name": "GetLogListAt",
      "outputs": [
        {
          "name": "_logTitle",
          "type": "string"
        },
        {
          "name": "_logAddress",
          "type": "address"
        },
        {
          "name": "_logString",
          "type": "string"
        },
        {
          "name": "_logUint",
          "type": "uint256"
        }
      ],
      "payable": false,
      "stateMutability": "view",
      "type": "function"
    },
    {
      "constant": true,
      "inputs": [],
      "name": "GetOwner",
      "outputs": [
        {
          "name": "",
          "type": "address"
        }
      ],
      "payable": false,
      "stateMutability": "view",
      "type": "function"
    },
    {
      "constant": true,
      "inputs": [],
      "name": "GetPublicKey",
      "outputs": [
        {
          "name": "publicKey",
          "type": "string"
        }
      ],
      "payable": false,
      "stateMutability": "view",
      "type": "function"
    },
    {
      "constant": false,
      "inputs": [
        {
          "name": "contactChannelAddress",
          "type": "address"
        }
      ],
      "name": "AddContactToWhitelist",
      "outputs": [],
      "payable": false,
      "stateMutability": "nonpayable",
      "type": "function"
    },
    {
      "constant": true,
      "inputs": [
        {
          "name": "contact",
          "type": "address"
        }
      ],
      "name": "IsContactInWhitelist",
      "outputs": [
        {
          "name": "exist",
          "type": "bool"
        }
      ],
      "payable": false,
      "stateMutability": "view",
      "type": "function"
    },
    {
      "constant": true,
      "inputs": [],
      "name": "GetWhitelistedContacts",
      "outputs": [
        {
          "name": "",
          "type": "address[]"
        }
      ],
      "payable": false,
      "stateMutability": "view",
      "type": "function"
    },
    {
      "constant": false,
      "inputs": [
        {
          "name": "senderChannelAddress",
          "type": "address"
        },
        {
          "name": "ipfsAddress",
          "type": "string"
        },
        {
          "name": "v",
          "type": "uint8"
        },
        {
          "name": "r",
          "type": "bytes32"
        },
        {
          "name": "s",
          "type": "bytes32"
        }
      ],
      "name": "AddMessage",
      "outputs": [],
      "payable": false,
      "stateMutability": "nonpayable",
      "type": "function"
    },
    {
      "constant": false,
      "inputs": [
        {
          "name": "senderChannelAddress",
          "type": "address"
        },
        {
          "name": "ipfsAddress",
          "type": "string"
        },
        {
          "name": "v",
          "type": "uint8"
        },
        {
          "name": "r",
          "type": "bytes32"
        },
        {
          "name": "s",
          "type": "bytes32"
        }
      ],
      "name": "AddMessageEx",
      "outputs": [],
      "payable": false,
      "stateMutability": "nonpayable",
      "type": "function"
    },
    {
      "constant": true,
      "inputs": [
        {
          "name": "ipfsAddress",
          "type": "bytes"
        },
        {
          "name": "v",
          "type": "uint8"
        },
        {
          "name": "r",
          "type": "bytes32"
        },
        {
          "name": "s",
          "type": "bytes32"
        }
      ],
      "name": "recoverPublicKey",
      "outputs": [
        {
          "name": "sender",
          "type": "address"
        }
      ],
      "payable": false,
      "stateMutability": "pure",
      "type": "function"
    }
  ],
  "bytecode": "0x60806040523480156200001157600080fd5b506040516200149238038062001492833981018060405260408110156200003757600080fd5b810190808051906020019092919080516401000000008111156200005a57600080fd5b828101905060208101848111156200007157600080fd5b81518560018202830111640100000000821117156200008f57600080fd5b505092919050505081600160006101000a81548173ffffffffffffffffffffffffffffffffffffffff021916908373ffffffffffffffffffffffffffffffffffffffff1602179055508060029080519060200190620000f0929190620000f9565b505050620001a8565b828054600181600116156101000203166002900490600052602060002090601f016020900481019282601f106200013c57805160ff19168380011785556200016d565b828001600101855582156200016d579182015b828111156200016c5782518255916020019190600101906200014f565b5b5090506200017c919062000180565b5090565b620001a591905b80821115620001a157600081600090555060010162000187565b5090565b90565b6112da80620001b86000396000f3fe6080604052600436106100af576000357c0100000000000000000000000000000000000000000000000000000000900463ffffffff1680630ae50a39146100b457806317f634f61461010b5780632714a037146102145780633f2a68fc14610265578063414d5b62146102ce57806384f19e981461035e57806396be138d146104e7578063c208715c146105f0578063e915920e1461065c578063e9b6f7b314610743578063f3edc14c1461089d575b600080fd5b3480156100c057600080fd5b506100c96108c8565b604051808273ffffffffffffffffffffffffffffffffffffffff1673ffffffffffffffffffffffffffffffffffffffff16815260200191505060405180910390f35b34801561011757600080fd5b50610212600480360360a081101561012e57600080fd5b81019080803573ffffffffffffffffffffffffffffffffffffffff1690602001909291908035906020019064010000000081111561016b57600080fd5b82018360208201111561017d57600080fd5b8035906020019184600183028401116401000000008311171561019f57600080fd5b91908080601f016020809104026020016040519081016040528093929190818152602001838380828437600081840152601f19601f820116905080830192505050505050509192919290803560ff16906020019092919080359060200190929190803590602001909291905050506108f2565b005b34801561022057600080fd5b506102636004803603602081101561023757600080fd5b81019080803573ffffffffffffffffffffffffffffffffffffffff169060200190929190505050610afc565b005b34801561027157600080fd5b506102b46004803603602081101561028857600080fd5b81019080803573ffffffffffffffffffffffffffffffffffffffff169060200190929190505050610bbd565b604051808215151515815260200191505060405180910390f35b3480156102da57600080fd5b506102e3610c13565b6040518080602001828103825283818151815260200191508051906020019080838360005b83811015610323578082015181840152602081019050610308565b50505050905090810190601f1680156103505780820380516001836020036101000a031916815260200191505b509250505060405180910390f35b34801561036a57600080fd5b506104e56004803603608081101561038157600080fd5b810190808035906020019064010000000081111561039e57600080fd5b8201836020820111156103b057600080fd5b803590602001918460018302840111640100000000831117156103d257600080fd5b91908080601f016020809104026020016040519081016040528093929190818152602001838380828437600081840152601f19601f820116905080830192505050505050509192919290803573ffffffffffffffffffffffffffffffffffffffff1690602001909291908035906020019064010000000081111561045557600080fd5b82018360208201111561046757600080fd5b8035906020019184600183028401116401000000008311171561048957600080fd5b91908080601f016020809104026020016040519081016040528093929190818152602001838380828437600081840152601f19601f82011690508083019250505050505050919291929080359060200190929190505050610cb5565b005b3480156104f357600080fd5b506105ee600480360360a081101561050a57600080fd5b81019080803573ffffffffffffffffffffffffffffffffffffffff1690602001909291908035906020019064010000000081111561054757600080fd5b82018360208201111561055957600080fd5b8035906020019184600183028401116401000000008311171561057b57600080fd5b91908080601f016020809104026020016040519081016040528093929190818152602001838380828437600081840152601f19601f820116905080830192505050505050509192919290803560ff1690602001909291908035906020019092919080359060200190929190505050610dae565b005b3480156105fc57600080fd5b50610605610e85565b6040518080602001828103825283818151815260200191508051906020019060200280838360005b8381101561064857808201518184015260208101905061062d565b505050509050019250505060405180910390f35b34801561066857600080fd5b506107016004803603608081101561067f57600080fd5b810190808035906020019064010000000081111561069c57600080fd5b8201836020820111156106ae57600080fd5b803590602001918460018302840111640100000000831117156106d057600080fd5b9091929391929390803560ff1690602001909291908035906020019092919080359060200190929190505050610f13565b604051808273ffffffffffffffffffffffffffffffffffffffff1673ffffffffffffffffffffffffffffffffffffffff16815260200191505060405180910390f35b34801561074f57600080fd5b5061077c6004803603602081101561076657600080fd5b8101908080359060200190929190505050610fbb565b60405180806020018573ffffffffffffffffffffffffffffffffffffffff1673ffffffffffffffffffffffffffffffffffffffff16815260200180602001848152602001838103835287818151815260200191508051906020019080838360005b838110156107f85780820151818401526020810190506107dd565b50505050905090810190601f1680156108255780820380516001836020036101000a031916815260200191505b50838103825285818151815260200191508051906020019080838360005b8381101561085e578082015181840152602081019050610843565b50505050905090810190601f16801561088b5780820380516001836020036101000a031916815260200191505b50965050505050505060405180910390f35b3480156108a957600080fd5b506108b26111be565b6040518082815260200191505060405180910390f35b6000600160009054906101000a900473ffffffffffffffffffffffffffffffffffffffff16905090565b606060003073ffffffffffffffffffffffffffffffffffffffff1663e915920e838787876040518563ffffffff167c010000000000000000000000000000000000000000000000000000000002815260040180806020018560ff1660ff168152602001848152602001838152602001828103825286818151815260200191508051906020019080838360005b8381101561099957808201518184015260208101905061097e565b50505050905090810190601f1680156109c65780820380516001836020036101000a031916815260200191505b509550505050505060206040518083038186803b1580156109e657600080fd5b505afa1580156109fa573d6000803e3d6000fd5b505050506040513d6020811015610a1057600080fd5b810190808051906020019092919050505090507f15340f1d3815fc99b59e3b9ed010321f64951d6e6a43c97a9e92713e7cd6ad178787604051808373ffffffffffffffffffffffffffffffffffffffff1673ffffffffffffffffffffffffffffffffffffffff16815260200180602001828103825283818151815260200191508051906020019080838360005b83811015610ab8578082015181840152602081019050610a9d565b50505050905090810190601f168015610ae55780820380516001836020036101000a031916815260200191505b50935050505060405180910390a150505050505050565b6001600360008373ffffffffffffffffffffffffffffffffffffffff1673ffffffffffffffffffffffffffffffffffffffff16815260200190815260200160002060006101000a81548160ff02191690831515021790555060048190806001815401808255809150509060018203906000526020600020016000909192909190916101000a81548173ffffffffffffffffffffffffffffffffffffffff021916908373ffffffffffffffffffffffffffffffffffffffff1602179055505050565b6000600360008373ffffffffffffffffffffffffffffffffffffffff1673ffffffffffffffffffffffffffffffffffffffff16815260200190815260200160002060009054906101000a900460ff169050919050565b606060028054600181600116156101000203166002900480601f016020809104026020016040519081016040528092919081815260200182805460018160011615610100020316600290048015610cab5780601f10610c8057610100808354040283529160200191610cab565b820191906000526020600020905b815481529060010190602001808311610c8e57829003601f168201915b5050505050905090565b60006080604051908101604052808681526020018573ffffffffffffffffffffffffffffffffffffffff16815260200184815260200183815250908060018154018082558091505090600182039060005260206000209060040201600090919290919091506000820151816000019080519060200190610d369291906111ca565b5060208201518160010160006101000a81548173ffffffffffffffffffffffffffffffffffffffff021916908373ffffffffffffffffffffffffffffffffffffffff1602179055506040820151816002019080519060200190610d9a9291906111ca565b506060820151816003015550505050505050565b7f15340f1d3815fc99b59e3b9ed010321f64951d6e6a43c97a9e92713e7cd6ad178585604051808373ffffffffffffffffffffffffffffffffffffffff1673ffffffffffffffffffffffffffffffffffffffff16815260200180602001828103825283818151815260200191508051906020019080838360005b83811015610e43578082015181840152602081019050610e28565b50505050905090810190601f168015610e705780820380516001836020036101000a031916815260200191505b50935050505060405180910390a15050505050565b60606004805480602002602001604051908101604052809291908181526020018280548015610f0957602002820191906000526020600020905b8160009054906101000a900473ffffffffffffffffffffffffffffffffffffffff1673ffffffffffffffffffffffffffffffffffffffff1681526020019060010190808311610ebf575b5050505050905090565b600080868660405160200180838380828437808301925050509250505060405160208183030381529060405280519060200120905060018186868660405160008152602001604052604051808581526020018460ff1660ff1681526020018381526020018281526020019450505050506020604051602081039080840390855afa158015610fa5573d6000803e3d6000fd5b5050506020604051035191505095945050505050565b6060600060606000610fcb61124a565b600086815481101515610fda57fe5b906000526020600020906004020160806040519081016040529081600082018054600181600116156101000203166002900480601f01602080910402602001604051908101604052809291908181526020018280546001816001161561010002031660029004801561108d5780601f106110625761010080835404028352916020019161108d565b820191906000526020600020905b81548152906001019060200180831161107057829003601f168201915b505050505081526020016001820160009054906101000a900473ffffffffffffffffffffffffffffffffffffffff1673ffffffffffffffffffffffffffffffffffffffff1673ffffffffffffffffffffffffffffffffffffffff168152602001600282018054600181600116156101000203166002900480601f0160208091040260200160405190810160405280929190818152602001828054600181600116156101000203166002900480156111855780601f1061115a57610100808354040283529160200191611185565b820191906000526020600020905b81548152906001019060200180831161116857829003601f168201915b50505050508152602001600382015481525050905080600001519450806020015193508060400151925080606001519150509193509193565b60008080549050905090565b828054600181600116156101000203166002900490600052602060002090601f016020900481019282601f1061120b57805160ff1916838001178555611239565b82800160010185558215611239579182015b8281111561123857825182559160200191906001019061121d565b5b5090506112469190611289565b5090565b60806040519081016040528060608152602001600073ffffffffffffffffffffffffffffffffffffffff16815260200160608152602001600081525090565b6112ab91905b808211156112a757600081600090555060010161128f565b5090565b9056fea165627a7a7230582086374dfab51e27a9e5de3d2dd5a0f041ef76f07072b6da5f3473c632d5779e880029",
  "source": "pragma solidity >=0.4.20;\n\ncontract MyChannel {\n\n//////////////////////////////////////\n    struct LogMessage {\n        string  logTitle;\n        address logAddress;\n        string  logString;\n        uint    logUint;\n    }\n\n    LogMessage[] logMessageList;\n\n    function AddLogMessage(string memory  _logTitle, address _logAddress, string memory _logString,uint _logUint ) public{\n        logMessageList.push(LogMessage({\n            logTitle:_logTitle,\n            logAddress:_logAddress,\n            logString:_logString,\n            logUint:_logUint}));\n    }\n\n    function GetLogListCount () public view returns(uint) {\n        return logMessageList.length;\n    }\n\n    function GetLogListAt (uint index) public view returns(string  memory _logTitle,address _logAddress, string memory _logString, uint _logUint) {\n        LogMessage memory _logMessage = logMessageList[index];\n        _logTitle = _logMessage.logTitle;\n        _logAddress = _logMessage.logAddress;\n        _logString = _logMessage.logString;\n        _logUint = _logMessage.logUint;\n    }\n//////////////////////////////////////\n\n    address owner;\n    string pubicKey;\n    mapping (address => bool) contactWhitelistMap; // contact_address to contact_publickey\n    address[] contactWhitelistArray;\n    event MessageReceived(address sender , string ipfs_address);\n\n    constructor(address _owner,string memory _publicKey) public{\n        owner = _owner;\n        pubicKey = _publicKey;\n    }\n\n    function GetOwner() public view returns (address){\n        return owner;\n    }\n\n    function GetPublicKey() public view returns (string memory publicKey) {\n        return pubicKey;\n    }\n\n    function AddContactToWhitelist (address contactChannelAddress) public {\n        contactWhitelistMap[contactChannelAddress] = true;\n        contactWhitelistArray.push(contactChannelAddress);\n    }\n\n    function IsContactInWhitelist(address contact) public view returns(bool exist) {\n        exist = contactWhitelistMap[contact];\n    }\n\n    function GetWhitelistedContacts () public view returns(address[] memory ) {\n        return contactWhitelistArray;\n    }\n\n    function AddMessage (address senderChannelAddress, string memory ipfsAddress, uint8 v, bytes32 r, bytes32 s) public {\n\n        /*address senderPublicKey = this.recoverPublicKey(ipfsAddress,v,r,s); */\n        emit MessageReceived(senderChannelAddress, ipfsAddress );\n\n        /* if ( require(senderPublicKey == contactWhitelist[senderChannelAddress]))\n            emit MessageReceived(senderChannelAddress, ipfsAddress );\n        else\n            emit MessageReceived(senderChannelAddress, 0 );         */\n\n\n        /* require(senderPublicKey == contactWhitelist[senderChannelAddress]); */\n        /* emit MessageReceived(senderChannelAddress, ipfsAddress ) */\n\n    }\n\n    function AddMessageEx(address senderChannelAddress, string memory ipfsAddress, uint8 v, bytes32 r, bytes32 s) public {\n\n        bytes memory _ipfsAddress;\n        address senderPublicKey = this.recoverPublicKey(_ipfsAddress,v,r,s);\n        /* this.AddLogMessage(); */\n        emit MessageReceived(senderChannelAddress, ipfsAddress );\n\n        /* if ( require(senderPublicKey == contactWhitelist[senderChannelAddress]))\n            emit MessageReceived(senderChannelAddress, ipfsAddress );\n        else\n            emit MessageReceived(senderChannelAddress, 0 );         */\n\n\n        /* require(senderPublicKey == contactWhitelist[senderChannelAddress]); */\n        /* emit MessageReceived(senderChannelAddress, ipfsAddress ) */\n\n    }\n\n    function recoverPublicKey(bytes calldata ipfsAddress, uint8 v, bytes32 r, bytes32 s) external pure returns (address sender) {\n            bytes32 msgHash = keccak256(abi.encodePacked(ipfsAddress));\n            return ecrecover(msgHash, v, r, s);\n    }\n\n\n    /* function stringToBytes32(string memory source) returns (bytes32 result) {\n        bytes memory tempEmptyStringTest = bytes(source);\n        if (tempEmptyStringTest.length == 0) {\n            return 0x0;\n        }\n\n        assembly {\n            result := mload(add(source, 32))\n        }\n    } */\n\n}\n",
  "sourcePath": "/Chim/RadicalLedger/dev/ethdenver/ourchannel/hackathon/packages/contracts/contracts/MyChannel.sol",
  "compiler": {
    "name": "solc",
    "version": "0.5.0+commit.1d4f565a.Emscripten.clang"
  },
  "schemaVersion": "3.0.2",
  "updatedAt": "2019-02-17T05:54:51.974Z",
  "devdoc": {
    "methods": {}
  },
  "userdoc": {
    "methods": {}
  }
}