{
  "contractName": "MyChannel",
  "abi": [
    {
      "constant": true,
      "inputs": [],
      "name": "verificationInfo",
      "outputs": [
        {
          "name": "",
          "type": "bytes"
        }
      ],
      "payable": false,
      "stateMutability": "view",
      "type": "function"
    },
    {
      "inputs": [],
      "payable": false,
      "stateMutability": "nonpayable",
      "type": "constructor"
    },
    {
      "anonymous": false,
      "inputs": [
        {
          "indexed": false,
          "name": "sender",
          "type": "address"
        },
        {
          "indexed": false,
          "name": "ipfs_address",
          "type": "string"
        }
      ],
      "name": "MessageReceived",
      "type": "event"
    },
    {
      "constant": false,
      "inputs": [
        {
          "name": "_owner",
          "type": "address"
        }
      ],
      "name": "SetOwner",
      "outputs": [],
      "payable": false,
      "stateMutability": "nonpayable",
      "type": "function"
    },
    {
      "constant": true,
      "inputs": [],
      "name": "GetOwner",
      "outputs": [
        {
          "name": "",
          "type": "address"
        }
      ],
      "payable": false,
      "stateMutability": "view",
      "type": "function"
    },
    {
      "constant": false,
      "inputs": [
        {
          "name": "_publicKey",
          "type": "string"
        }
      ],
      "name": "SetPublicKey",
      "outputs": [],
      "payable": false,
      "stateMutability": "nonpayable",
      "type": "function"
    },
    {
      "constant": true,
      "inputs": [],
      "name": "GetPublicKey",
      "outputs": [
        {
          "name": "publicKey",
          "type": "string"
        }
      ],
      "payable": false,
      "stateMutability": "view",
      "type": "function"
    },
    {
      "constant": false,
      "inputs": [
        {
          "name": "contactChannelAddress",
          "type": "address"
        },
        {
          "name": "publickey",
          "type": "bytes"
        }
      ],
      "name": "AddContactToWhitelist",
      "outputs": [],
      "payable": false,
      "stateMutability": "nonpayable",
      "type": "function"
    },
    {
      "constant": true,
      "inputs": [
        {
          "name": "contact",
          "type": "address"
        }
      ],
      "name": "GetContactPublicKey",
      "outputs": [
        {
          "name": "publicKey",
          "type": "bytes"
        }
      ],
      "payable": false,
      "stateMutability": "view",
      "type": "function"
    },
    {
      "constant": false,
      "inputs": [
        {
          "name": "senderChannelAddress",
          "type": "address"
        },
        {
          "name": "ipfsAddress",
          "type": "string"
        },
        {
          "name": "v",
          "type": "uint8"
        },
        {
          "name": "r",
          "type": "bytes32"
        },
        {
          "name": "s",
          "type": "bytes32"
        }
      ],
      "name": "AddMessage",
      "outputs": [],
      "payable": false,
      "stateMutability": "nonpayable",
      "type": "function"
    },
    {
      "constant": true,
      "inputs": [
        {
          "name": "ipfsAddress",
          "type": "bytes"
        },
        {
          "name": "v",
          "type": "uint8"
        },
        {
          "name": "r",
          "type": "bytes32"
        },
        {
          "name": "s",
          "type": "bytes32"
        }
      ],
      "name": "recoverPublicKey",
      "outputs": [
        {
          "name": "sender",
          "type": "address"
        }
      ],
      "payable": false,
      "stateMutability": "pure",
      "type": "function"
    }
  ],
  "bytecode": "0x608060405234801561001057600080fd5b50610ca1806100206000396000f3fe608060405260043610610099576000357c0100000000000000000000000000000000000000000000000000000000900463ffffffff1680630ae50a391461009e578063167d3e9c146100f55780631ccf8feb14610146578063414d5b621461022e57806375030b58146102be57806378568ae61461038857806396be138d14610450578063b80d9e6114610559578063e915920e146105e9575b600080fd5b3480156100aa57600080fd5b506100b36106d0565b604051808273ffffffffffffffffffffffffffffffffffffffff1673ffffffffffffffffffffffffffffffffffffffff16815260200191505060405180910390f35b34801561010157600080fd5b506101446004803603602081101561011857600080fd5b81019080803573ffffffffffffffffffffffffffffffffffffffff1690602001909291905050506106fa565b005b34801561015257600080fd5b5061022c6004803603604081101561016957600080fd5b81019080803573ffffffffffffffffffffffffffffffffffffffff169060200190929190803590602001906401000000008111156101a657600080fd5b8201836020820111156101b857600080fd5b803590602001918460018302840111640100000000831117156101da57600080fd5b91908080601f016020809104026020016040519081016040528093929190818152602001838380828437600081840152601f19601f82011690508083019250505050505050919291929050505061073e565b005b34801561023a57600080fd5b50610243610796565b6040518080602001828103825283818151815260200191508051906020019080838360005b83811015610283578082015181840152602081019050610268565b50505050905090810190601f1680156102b05780820380516001836020036101000a031916815260200191505b509250505060405180910390f35b3480156102ca57600080fd5b5061030d600480360360208110156102e157600080fd5b81019080803573ffffffffffffffffffffffffffffffffffffffff169060200190929190505050610838565b6040518080602001828103825283818151815260200191508051906020019080838360005b8381101561034d578082015181840152602081019050610332565b50505050905090810190601f16801561037a5780820380516001836020036101000a031916815260200191505b509250505060405180910390f35b34801561039457600080fd5b5061044e600480360360208110156103ab57600080fd5b81019080803590602001906401000000008111156103c857600080fd5b8201836020820111156103da57600080fd5b803590602001918460018302840111640100000000831117156103fc57600080fd5b91908080601f016020809104026020016040519081016040528093929190818152602001838380828437600081840152601f19601f820116905080830192505050505050509192919290505050610919565b005b34801561045c57600080fd5b50610557600480360360a081101561047357600080fd5b81019080803573ffffffffffffffffffffffffffffffffffffffff169060200190929190803590602001906401000000008111156104b057600080fd5b8201836020820111156104c257600080fd5b803590602001918460018302840111640100000000831117156104e457600080fd5b91908080601f016020809104026020016040519081016040528093929190818152602001838380828437600081840152601f19601f820116905080830192505050505050509192919290803560ff1690602001909291908035906020019092919080359060200190929190505050610933565b005b34801561056557600080fd5b5061056e610a0a565b6040518080602001828103825283818151815260200191508051906020019080838360005b838110156105ae578082015181840152602081019050610593565b50505050905090810190601f1680156105db5780820380516001836020036101000a031916815260200191505b509250505060405180910390f35b3480156105f557600080fd5b5061068e6004803603608081101561060c57600080fd5b810190808035906020019064010000000081111561062957600080fd5b82018360208201111561063b57600080fd5b8035906020019184600183028401116401000000008311171561065d57600080fd5b9091929391929390803560ff1690602001909291908035906020019092919080359060200190929190505050610aa8565b604051808273ffffffffffffffffffffffffffffffffffffffff1673ffffffffffffffffffffffffffffffffffffffff16815260200191505060405180910390f35b6000600160009054906101000a900473ffffffffffffffffffffffffffffffffffffffff16905090565b80600160006101000a81548173ffffffffffffffffffffffffffffffffffffffff021916908373ffffffffffffffffffffffffffffffffffffffff16021790555050565b80600360008473ffffffffffffffffffffffffffffffffffffffff1673ffffffffffffffffffffffffffffffffffffffff1681526020019081526020016000209080519060200190610791929190610b50565b505050565b606060028054600181600116156101000203166002900480601f01602080910402602001604051908101604052809291908181526020018280546001816001161561010002031660029004801561082e5780601f106108035761010080835404028352916020019161082e565b820191906000526020600020905b81548152906001019060200180831161081157829003601f168201915b5050505050905090565b6060600360008373ffffffffffffffffffffffffffffffffffffffff1673ffffffffffffffffffffffffffffffffffffffff1681526020019081526020016000208054600181600116156101000203166002900480601f01602080910402602001604051908101604052809291908181526020018280546001816001161561010002031660029004801561090d5780601f106108e25761010080835404028352916020019161090d565b820191906000526020600020905b8154815290600101906020018083116108f057829003601f168201915b50505050509050919050565b806002908051906020019061092f929190610bd0565b5050565b7f15340f1d3815fc99b59e3b9ed010321f64951d6e6a43c97a9e92713e7cd6ad178585604051808373ffffffffffffffffffffffffffffffffffffffff1673ffffffffffffffffffffffffffffffffffffffff16815260200180602001828103825283818151815260200191508051906020019080838360005b838110156109c85780820151818401526020810190506109ad565b50505050905090810190601f1680156109f55780820380516001836020036101000a031916815260200191505b50935050505060405180910390a15050505050565b60008054600181600116156101000203166002900480601f016020809104026020016040519081016040528092919081815260200182805460018160011615610100020316600290048015610aa05780601f10610a7557610100808354040283529160200191610aa0565b820191906000526020600020905b815481529060010190602001808311610a8357829003601f168201915b505050505081565b600080868660405160200180838380828437808301925050509250505060405160208183030381529060405280519060200120905060018186868660405160008152602001604052604051808581526020018460ff1660ff1681526020018381526020018281526020019450505050506020604051602081039080840390855afa158015610b3a573d6000803e3d6000fd5b5050506020604051035191505095945050505050565b828054600181600116156101000203166002900490600052602060002090601f016020900481019282601f10610b9157805160ff1916838001178555610bbf565b82800160010185558215610bbf579182015b82811115610bbe578251825591602001919060010190610ba3565b5b509050610bcc9190610c50565b5090565b828054600181600116156101000203166002900490600052602060002090601f016020900481019282601f10610c1157805160ff1916838001178555610c3f565b82800160010185558215610c3f579182015b82811115610c3e578251825591602001919060010190610c23565b5b509050610c4c9190610c50565b5090565b610c7291905b80821115610c6e576000816000905550600101610c56565b5090565b9056fea165627a7a7230582060ba4d16a4fd8ebc38d3d179bc62cac4a0b1ca4ce603a76e98f513e4d5911e9f0029",
  "source": "pragma solidity >=0.4.20;\n\ncontract MyChannel {\n    bytes public verificationInfo;\n    /* address verifiedBy; // Set by Issure proposing a verifier\n    bool    verified;   // Set by proposed verifier */\n    address owner;\n\n    string pubicKey;\n\n    mapping (address => bytes) contactWhitelist; // contact_address to contact_publickey\n\n    /* event WalletVerified(address indexed _verifiedBy, address walletAddress); */\n\n    event MessageReceived(address sender , string ipfs_address);\n\n    constructor() public{\n        /* verified   = false;\n        verifiedBy = address(0); */\n    }\n\n    function SetOwner(address _owner) public {\n        owner = _owner;\n    }\n\n    function GetOwner() public view returns (address){\n        return owner;\n    }\n\n    function SetPublicKey(string memory _publicKey) public {\n             pubicKey = _publicKey;\n    }\n\n    function GetPublicKey() public view returns (string memory publicKey) {\n        return pubicKey;\n    }\n\n\n/*\n    function SetMetaInfo(bytes _info) public {\n        verificationInfo = _info;\n    }\n\n    function GetMetaInfo() public view returns (bytes){\n        return verificationInfo;\n    } */\n\n    /* function SetVerifiedBy() public {\n        if (msg.sender == verifiedBy) { // if the message sender is the one who has proposed by contract owner, allow to proceed\n            verified = true;\n        }\n    } */\n\n    /* function GetVerifiedBy() public view returns(address) {\n        return verifiedBy;\n    } */\n\n    /* function IsVerified() public view returns (bool){\n        return verified;\n    } */\n\n    function AddContactToWhitelist (address contactChannelAddress, bytes memory publickey) public {\n        contactWhitelist[contactChannelAddress] = publickey;\n    }\n\n    function GetContactPublicKey (address contact) public view returns(bytes memory publicKey) {\n        publicKey = contactWhitelist[contact];\n    }\n\n    function AddMessage (address senderChannelAddress, string memory ipfsAddress, uint8 v, bytes32 r, bytes32 s) public {\n        /* address senderPublicKey = this.recoverPublicKey(ipfsAddress,v,r,s); */\n\n        emit MessageReceived(senderChannelAddress, ipfsAddress );\n\n        /* if ( require(senderPublicKey == contactWhitelist[senderChannelAddress]))\n            emit MessageReceived(senderChannelAddress, ipfsAddress );\n        else\n            emit MessageReceived(senderChannelAddress, 0 );         */\n\n\n        /* require(senderPublicKey == contactWhitelist[senderChannelAddress]); */\n        /* emit MessageReceived(senderChannelAddress, ipfsAddress ) */\n\n    }\n\n    function recoverPublicKey(bytes calldata ipfsAddress, uint8 v, bytes32 r, bytes32 s) external pure returns (address sender) {\n            bytes32 msgHash = keccak256(abi.encodePacked(ipfsAddress));\n            return ecrecover(msgHash, v, r, s);\n    }\n\n}\n",
  "sourcePath": "/Chim/RadicalLedger/dev/ethdenver/ourchannel/hackathon/packages/contracts/contracts/MyChannel.sol",
  "compiler": {
    "name": "solc",
    "version": "0.5.0+commit.1d4f565a.Emscripten.clang"
  },
  "schemaVersion": "3.0.2",
  "updatedAt": "2019-02-17T00:36:43.125Z",
  "devdoc": {
    "methods": {}
  },
  "userdoc": {
    "methods": {}
  }
}